:020000040800F2
:10000000008000206DC70008BDC70008BDC70008FC
:10001000BDC70008BDC70008BDC70008000000003C
:10002000000000000000000000000000BDC7000844
:10003000BDC7000800000000BDC7000857AE00089B
:10004000BDC70008BDC70008BDC70008BDC7000880
:10005000BDC70008BDC70008E5B00008EBB0000848
:10006000F1B00008F7B00008FDB00008693C0008D6
:10007000753C0008BDC70008BDC70008BDC7000823
:10008000BDC7000800000000BDC70008BDC70008CC
:10009000BDC70008BDC70008BDC7000803B1000800
:1000A00081AA0008CDA9000895AA0008F1A90008B6
:1000B00005AA000819AA00082DAA000885590008F9
:1000C000915900089D590008A9590008BDC70008AA
:1000D000BDC7000809BF000821BF00083DBF0008D8
:1000E0002BB10008BDC70008BDC70008BDC7000888
:1000F00069AA0008BDC700087DAA0008000000002A
:1001000000000000BDC7000800000000BDC70008D7
:1001100059BF00080000000041AA000855AA0008C5
:10012000BDC70008BDC70008BDC70008BDC700089F
:10013000BDC700080000000000000000BDC70008A7
:10014000BDC70008BDC70008000000000000000097
:10015000000000000000000000000000000000009F
:10016000000000000000000000000000BDC7000803
:10017000BDC70008000000000000000000000000F3
:1001800000000000BDC700080000000000000000E3
:10019000000000000000000000000000000000005F
:1001A0000000000000000000BDC7000871BF00088B
:1001B000B5590008C1590008BDC70008000000007B
:1001C00000000000BDC700080000000000000000A3
:0801D000BDC70008BDC700080F
:1001E000034613F8012B002AFBD1181A0138704777
:1001F00001F0FF01102A2BDB10F0070F08D010F8D8
:10020000013B013A8B422DD010F0070F42B3F6D1DB
:10021000F0B441EA012141EA014122F007047FF0F4
:1002200000070023F0E80256083C85EA010586EA4B
:10023000010685FA47F5A3FA87F586FA47F6A5FA87
:1002400087F68EB9EED1F0BC01F0FF0102F0070293
:1002500032B110F8013B013A83EA010313B1F8D13E
:100260000020704701387047002D06BF354603381F
:10027000073815F0010F07D1013015F4807F02BF58
:10028000013015F4C03F0130F0BC0138704700BFA9
:1002900081F0004102E000BF83F0004330B54FEA37
:1002A00041044FEA430594EA050F08BF90EA020FA4
:1002B0001FBF54EA000C55EA020C7FEA645C7FEA37
:1002C000655C00F0E2804FEA5454D4EB5555B8BF5A
:1002D0006D420CDD2C4480EA020281EA030382EACB
:1002E000000083EA010180EA020281EA0303362D5D
:1002F00088BF30BD11F0004F4FEA01314FF4801C30
:100300004CEA113102D0404261EB410113F0004F41
:100310004FEA03334CEA133302D0524263EB4303F8
:1003200094EA050F00F0A780A4F10104D5F1200E96
:100330000DDB02FA0EFC22FA05F2801841F10001F1
:1003400003FA0EF2801843FA05F359410EE0A5F1C5
:1003500020050EF1200E012A03FA0EFC28BF4CF0F6
:10036000020C43FA05F3C01851EBE37101F00045AC
:1003700007D54FF0000EDCF1000C7EEB00006EEBB9
:100380000101B1F5801F1BD3B1F5001F0CD3490843
:100390005FEA30004FEA3C0C04F101044FEA44529A
:1003A00012F5800F80F09A80BCF1004F08BF5FEA21
:1003B000500C50F1000041EB045141EA050130BD01
:1003C0005FEA4C0C404141EB0101013C28BFB1F513
:1003D000801FE9D291F0000F04BF01460020B1FA5E
:1003E00081F308BF2033A3F10B03B3F120020CDA31
:1003F0000C3208DD02F1140CC2F10C0201FA0CF00F
:1004000021FA02F10CE002F11402D8BFC2F1200C73
:1004100001FA02F120FA0CFCDCBF41EA0C01904029
:10042000E41AA2BF01EB0451294330BD6FEA040472
:100430001F3C1CDA0C340EDC04F11404C4F120025D
:1004400020FA04F001FA02F340EA030021FA04F36F
:1004500045EA030130BDC4F10C04C4F1200220FAC6
:1004600002F001FA04F340EA0300294630BD21FA04
:1004700004F0294630BD94F0000F83F4801306BFCA
:1004800081F480110134013D4EE77FEA645C18BFBE
:100490007FEA655C29D094EA050F08BF90EA020F55
:1004A00005D054EA000C04BF1946104630BD91EA4D
:1004B000030F1EBF0021002030BD5FEA545C05D150
:1004C0004000494128BF41F0004130BD14F580048F
:1004D0003CBF01F5801130BD01F0004545F0FE4103
:1004E00041F470014FF0000030BD7FEA645C1ABF38
:1004F000194610467FEA655C1CBF0B46024650EA6F
:10050000013406BF52EA033591EA030F41F400219A
:1005100030BD00BF90F0000F04BF0021704730B520
:100520004FF4806404F132044FF000054FF00001F5
:1005300050E700BF90F0000F04BF0021704730B5B6
:100540004FF4806404F1320410F0004548BF40428B
:100550004FF000013EE700BF42004FEAE2014FEAE0
:1005600031014FEA02701FBF12F07F4393F07F4FBB
:1005700081F06051704732F07F4208BF704793F0BE
:100580007F4F04BF41F40021704730B54FF46074D1
:1005900001F0004521F000411CE700BF50EA0102D4
:1005A00008BF704730B54FF000050AE050EA01027D
:1005B00008BF704730B511F0004502D5404261EBED
:1005C00041014FF4806404F132045FEA915C3FF42E
:1005D000D8AE4FF003025FEADC0C18BF03325FEACB
:1005E000DC0C18BF033202EBDC02C2F1200300FA7C
:1005F00003FC20FA02F001FA03FE40EA0E0021FAA1
:1006000002F11444BDE600BF70B54FF0FF0C4CF48E
:10061000E06C1CEA11541DBF1CEA135594EA0C0F40
:1006200095EA0C0F00F0DEF82C4481EA030621EA7B
:100630004C5123EA4C5350EA013518BF52EA0335B6
:1006400041F4801143F4801338D0A0FB02CE4FF068
:100650000005E1FB02E506F00042E0FB03E54FF098
:100660000006E1FB03569CF0000F18BF4EF0010E90
:10067000A4F1FF04B6F5007F64F5407404D25FEA8C
:100680004E0E6D4146EB060642EAC62141EA55513F
:100690004FEAC52040EA5E504FEACE2EB4F1FD0C81
:1006A00088BFBCF5E06F1ED8BEF1004F08BF5FEAFF
:1006B000500E50F1000041EB045170BD06F00046B1
:1006C00046EA010140EA020081EA0301B4EB5C045E
:1006D000C2BFD4EB0C0541EA045170BD41F4801156
:1006E0004FF0000E013C00F3AB8014F1360FDEBF7B
:1006F000002001F0004170BDC4F10004203C35DA57
:100700000C341BDC04F11404C4F1200500FA05F3D9
:1007100020FA04F001FA05F240EA020001F000427A
:1007200021F0004110EBD37021FA04F642EB0601F0
:100730005EEA430E08BF20EAD37070BDC4F10C041A
:10074000C4F1200500FA04F320FA05F001FA04F2DE
:1007500040EA020001F0004110EBD37041F10001CA
:100760005EEA430E08BF20EAD37070BDC4F12005D5
:1007700000FA05F24EEA020E20FA04F301FA05F23D
:1007800043EA020321FA04F001F0004121FA04F2E5
:1007900020EA020000EBD3705EEA430E08BF20EAB5
:1007A000D37070BD94F0000F0FD101F000464000EF
:1007B00041EB010111F4801F08BF013CF7D041EA71
:1007C000060195F0000F18BF704703F00046520075
:1007D00043EB030313F4801F08BF013DF7D043EA46
:1007E0000603704794EA0C0F0CEA135518BF95EAFC
:1007F0000C0F0CD050EA410618BF52EA4306D1D183
:1008000081EA030101F000414FF0000070BD50EAA1
:10081000410606BF1046194652EA430619D094EA2B
:100820000C0F02D150EA013613D195EA0C0F05D115
:1008300052EA03361CBF104619460AD181EA030169
:1008400001F0004141F0FE4141F470014FF0000021
:1008500070BD41F0FE4141F4780170BD70B54FF0BC
:10086000FF0C4CF4E06C1CEA11541DBF1CEA13553C
:1008700094EA0C0F95EA0C0F00F0A7F8A4EB05041E
:1008800081EA030E52EA03354FEA013100F0888015
:100890004FEA03334FF0805545EA131343EA1263DE
:1008A0004FEA022245EA111545EA10654FEA002693
:1008B0000EF000419D4208BF964244F1FD0404F54C
:1008C000407402D25B084FEA3202B61A65EB0305A8
:1008D0005B084FEA32024FF480104FF4002CB6EB65
:1008E000020E75EB030E22BFB61A754640EA0C00E5
:1008F0005B084FEA3202B6EB020E75EB030E22BF25
:10090000B61A754640EA5C005B084FEA3202B6EB65
:10091000020E75EB030E22BFB61A754640EA9C0024
:100920005B084FEA3202B6EB020E75EB030E22BFF4
:10093000B61A754640EADC0055EA060E18D04FEAB2
:10094000051545EA16754FEA06164FEAC30343EA52
:1009500052734FEAC2025FEA1C1CC0D111F4801F1F
:100960000BD141EA00014FF000004FF0004CB6E718
:1009700011F4801F04BF01430020B4F1FD0C88BFB7
:10098000BCF5E06F3FF6AFAEB5EB030C04BFB6EBC2
:10099000020C5FEA500C50F1000041EB045170BDB5
:1009A0000EF0004E4EEA113114EB5C04C2BFD4EBE2
:1009B0000C0541EA045170BD41F480114FF0000E66
:1009C000013C90E645EA060E8DE60CEA135594EAE2
:1009D0000C0F08BF95EA0C0F3FF43BAF94EA0C0FE5
:1009E0000AD150EA01347FF434AF95EA0C0F7FF45A
:1009F00025AF104619462CE795EA0C0F06D152EAAE
:100A000003353FF4FDAE1046194622E750EA410691
:100A100018BF52EA43067FF4C5AE50EA41047FF4A2
:100A20000DAF52EA43057FF4EBAE12E74FF0FF3C07
:100A300006E000BF4FF0010C02E000BF4FF0010CD8
:100A40004DF804CD4FEA410C7FEA6C5C4FEA430C51
:100A500018BF7FEA6C5C1BD001B050EA410C0CBFA0
:100A600052EA430C91EA030F02BF90EA020F002002
:100A7000704710F1000F91EA030F58BF994208BF69
:100A800090422CBFD8176FEAE37040F00100704726
:100A90004FEA410C7FEA6C5C02D150EA013C07D17D
:100AA0004FEA430C7FEA6C5CD6D152EA033CD3D0C8
:100AB0005DF8040B704700BF8446104662468C46C2
:100AC0001946634600E000BF01B5FFF7B7FF0028F5
:100AD00048BF10F1000F01BD4DF808EDFFF7F4FF1E
:100AE0000CBF012000205DF808FB00BF4DF808EDA9
:100AF000FFF7EAFF34BF012000205DF808FB00BFCC
:100B00004DF808EDFFF7E0FF94BF012000205DF8ED
:100B100008FB00BF4DF808EDFFF7CEFF94BF0120A2
:100B200000205DF808FB00BF4DF808EDFFF7C4FF9B
:100B300034BF012000205DF808FB00BF4A0011D23D
:100B400012F5001211D20DD56FF47873B3EB625227
:100B50000ED44FEAC12343F0004343EA505323FA33
:100B600002F070474FF00000704750EA013002D1A8
:100B70004FF0FF3070474FF0000070474FEA4102DE
:100B8000B2F1E04324BFB3F5001CDCF1FE5C0DD9EB
:100B900001F0004C4FEAC0024CEA5070B2F1004F35
:100BA00040EB830008BF20F00100704711F0804F38
:100BB00021D113F13872BCBF01F00040704741F4FD
:100BC00080114FEA5252C2F11802C2F1200C10FA01
:100BD0000CF320FA02F018BF40F001004FEAC123E5
:100BE0004FEAD32303FA0CFC40EA0C0023FA02F389
:100BF0004FEA4303CCE77FEA625307D150EA01335F
:100C00001EBF4FF0FE4040F44000704701F000402E
:100C100040F0FE4040F40000704700BF53B94AB9AD
:100C2000002908BF00281CBF4FF0FF314FF0FF30F4
:100C300000F00CB8ADF1080C6DE904CE0EF05AFFCF
:100C4000DDF804E0DDE9022304B07047704700BF1F
:100C500010B5054C237833B9044B13B10448AFF3F6
:100C600000800123237010BDD80300200000000085
:100C7000F4FD000808B5034B1BB103490348AFF36B
:100C8000008008BD00000000DC030020F4FD000827
:100C9000014804F065BB00BFD00400200246024BAF
:100CA0000249034802F0B0B919080108B005002054
:100CB000F40300201FB59FED191A1948F0EE410A00
:100CC000B0EE410A0B2100F0D1FB164A1648CF23A3
:100CD000CDE902321B211D23CDE9003100221A2368
:100CE000192103F059F9DFED110A9FED110A11489E
:100CF000CA23C622C22102F023FC40F2A9330222F9
:100D000026210D4804F0C6FA0C490D4800230A229A
:100D100005B05DF804EB02F040B800BF00E440C647
:100D2000B0050020C7CFFFFF64050020254912C190
:100D3000A69B443B1C050020D0040020DC0C0020B6
:100D4000F403002010B506224FF4E1313148324C53
:100D50000BF0E4FA2F4802F013FB304803F044F89C
:100D60002E492D4800F08CF82D4804F0C7FA2D4983
:100D70002B4804F007FB2A49274801F035FD274995
:100D8000294801F098F8284802F084FC264A2248B5
:100D900011460123137101F02AFD244B23642046E0
:100DA000636400F049FA204600F03CFE022384F818
:100DB00069301F4A1F4BC4F8CC30A2651E4B1F4A36
:100DC0001449C4F8D030C4F8D820C4F8F0301C4A14
:100DD000C4F814214FF081432046236601F06AFDD8
:100DE000204600F029FA204600F01CFE154B164A5A
:100DF0001648542101F0EBFF154906480BF012FB91
:100E0000144904480BF00EFBBDE810404FF47A7013
:100E100001F0BFBFDC0C0020B005002064050020FD
:100E2000D0040020910C00081C0500200000404068
:100E30000000C040CDCC4C3E0000A04100007A44F0
:100E40000AD7233C10FE00089D0C0008F403002084
:100E50001DFE00082AFE000808B5064800F05AFAF0
:100E600004489FED050A00F033FEBDE80840034842
:100E700002F07FBAB005002000E440C6F403002071
:100E8000C0F860117047000010B50446D0F8540156
:100E900010B103685B699847D4F860019FED081AA8
:100EA0000368F0EE410A1B69B0EE410A9847D4F896
:100EB000600103689B689847002384F8643010BD84
:100EC0000000000010B50446D0F8600103685B68BC
:100ED0009847D4F860019FED111A0368F0EE410ABB
:100EE0001B69B0EE410A9847D4F8540110B1036869
:100EF0001B69984704F1CC0001F046FF04F1F000B3
:100F000001F042FF04F16C0001F03EFF04F190009B
:100F100001F03AFF012384F8643010BD00000000A6
:100F200070B590F866302DED028B022BB0EE408A42
:100F300082B00446F0EE608AB0EE410A12D040F270
:100F4000DB80032B77D0D4F8600194ED5B1A036843
:100F5000D4ED5A0A1B6994ED590A984702B0BDECCA
:100F6000028B70BDDFEDAF7A31EE270A01F0F6FD9E
:100F70009FEDAD7A94F96720D4F86001C0EE077A4E
:100F8000B1EE087A67EE877AFDEEE77A17EE903ACF
:100F900032B3D0ED037AB6EE007A67EE877A0C2191
:100FA000A24A4B43D618D158036872685D69D1B91B
:100FB00007EE102AB8EEC77AF0EE676AE7EE086A25
:100FC00096ED027AC4ED597AC4ED5A6AB8EEC77A42
:100FD0000123E7EE087A1A46C4ED5B7AA847B2E728
:100FE000F0EE487ADBE707EE101AB8EEC77AF0EEBB
:100FF000676AE8EE076AC4ED596A62B996ED027A4B
:10100000C4ED5A7AB8EEC77A0123E7EE087AC4ED48
:101010005B7A1946E2E707EE102AB8EEC77AF0EEDF
:10102000676AE7EE086A0023C4ED5B7AC4ED5A6A8A
:1010300001221146D2E7DFED7B7A31EE270A01F07B
:101040008DFD9FED797A94F96720D4F86001C0EEA8
:10105000077AB2EE087A67EE877AFDEEE77A17EE46
:10106000903AEAB1D0ED037AB6EE007A67EE877A6D
:101070000C216F4A4B43D518D15803686A6895ED27
:10108000027A5D6979B906EE902AF8EEE66AB0EE6A
:10109000676AA6EE886AC4ED597A84ED5A6A95E7C4
:1010A000F0EE487AE4E706EE901AF8EEE66AB0EE63
:1010B000676AA8EE266A22B984ED596AC4ED5A7AA5
:1010C000A0E706EE902AF8EEE66AF0EE675AE8EE40
:1010D000265A17EE103A84ED596AC4ED5A5A13B9DC
:1010E000C4ED5B7AA4E7B8EEC77A0123E7EE087A8D
:1010F0001A46C4ED5B7A8CE7694601A801F01AFD37
:10110000DDED007ADDED016AD4F8603127EE880A62
:1011100028EE667AA6EEA80AA7EEA87ADFED457A51
:1011200084ED0F0A20EE270AFEEE006AF0EE407A08
:10113000E7EE267A97EE260AD3ED036A94F8663036
:1011400084ED0E7AF6EE005A012B66EEA56A84ED68
:10115000597AC4ED5A7A84ED5B0A31D1F4EEC07A43
:10116000F1EE10FACCBFB0EE406AB0EE676A04F55B
:10117000B473B4EEC67A04F5B670D8BF1A4604F557
:10118000B271C8BF0246F1EE10FAF4EEC07AD8BFD1
:101190000A46F1EE10FA4CBFB0EE405AB0EE675A74
:1011A000B4EEC57A48BF0346F1EE10FA58BF0B46BD
:1011B00092ED006A93ED005A36EE056AE6EE656A36
:1011C00094F967301BBBF4EEC07AF1EE10FACCBF95
:1011D000F0EE406AF0EE676AB4EEE67AD4BF04F54A
:1011E000B47304F5B673F1EE10FAD8BF04F5B27318
:1011F000D3ED006A37EE667A77EEE67A30EE660A6D
:1012000084ED597AC4ED5A7A84ED5B0A9BE637EE99
:10121000267A77EEA67A30EE260A84ED597AC4ED66
:101220005A7AF1E7920A063FDB0FC940900000208E
:1012300000000020D7B35D3FD0F8603110B5044600
:101240000BB11B7C3BB90F232E4884F8653002F0AC
:10125000A7F8002010BD012380F865302A4802F06D
:101260009FF8D4F86031D4ED167A93ED037AD4F870
:101270005431F4EEC77AF1EE10FAC4BFF0EE477ABB
:1012800084ED167A94ED107AB4EEE77AF1EE10FA66
:10129000C8BFC4ED107A1BB1C4ED1F7AC4ED287A23
:1012A000D4ED126A9FED197AF4EE476AF1EE10FA66
:1012B00002D194F868300BB1D4ED177A236EC4F8DC
:1012C000003194F86930C4ED377A033B012B05D81F
:1012D00094F93C3113B9012384F83C314FF4FA708E
:1012E00001F057FD0A4802F05BF8236820469B682E
:1012F00098474FF4FA7001F04CFD022384F86530F2
:101300000120A7E756FE000885FE000800E440C65D
:101310008FFE000810B50446D0F8500110B10368E4
:101320005B69984794F86930033B012B40F2998040
:1013300094F96430002B00F09480204601F096FA76
:1013400094F8683084ED040A012B07D0022B58D0A2
:10135000002B47D0434802F023F843E0D4F854016F
:1013600000287ED00368DB68984704F1B40084ED60
:101370000C0A01F02BFCD4ED067A84ED0C0A04F182
:101380006C0037EEC00A01F06DFCD4ED156ADFED9C
:10139000367A84ED0A0AF4EE676AF1EE10FA2DD07F
:1013A00094ED057AD4ED067A67EEC77A94ED137A58
:1013B000B8EEC77A67EE877A67EEA67AD4ED166A3A
:1013C000B1EE667AF4EEC77AF1EE10FA08D4F4EED4
:1013D000E67AF1EE10FAD4BFB0EE677AB0EE667A34
:1013E00084ED097A236894ED041AD4ED090A94ED8A
:1013F0000A0A9B692046BDE8104018470023636233
:10140000F0E7D4F8540160B300F03FFD04F1B400FC
:10141000C4ED0C0A84ED0B0AB0EE600A01F0D6FBB5
:1014200004F1C00084ED0C0A94ED0B0A01F0CEFB30
:10143000D4ED0C7A84ED0B0A94ED060A04F16C00ED
:1014400030EE670A01F00EFC84ED0A0A94ED0B0AF7
:1014500004F19000B1EE400A01F004FC84ED090AA9
:10146000C0E710BDA3FE000800E440C638B52DED6E
:10147000048B0446F0EE608AB0EE409AB0EE418AEA
:101480000D4601F0FBF8C4ED148A84ED129A84ED48
:10149000158ABDEC048B044B236000232046E564D1
:1014A00084F8683038BD00BF3008010810B5044624
:1014B0000E4801F075FFD4F8540194F967100368E1
:1014C00094ED100A5B68003918BF01219847044663
:1014D00038B9074801F064FF002CD4BF0020012078
:1014E00010BD0146034801F093FFF5E7C4FE000874
:1014F000DEFE0008F0FE000870B504462DED028BFC
:10150000B0EE408A01F047FCD4F870319FED337A99
:10151000C31A07EE903AF8EE677A054667EE877AC7
:10152000F5EEC07AF1EE10FA55D9B6EE007AF4EE87
:10153000477A9FED2B7AF1EE10FAC8BFF0EE477AAA
:1015400094ED030AA7EE880A01F008FBD4ED126AB5
:10155000DFED247A84ED058AF4EE676AF1EE10FA85
:1015600094ED168A84ED030A21D0D4ED0D7A94ED22
:10157000177AF0EEE77AB0EE676AA6EE876AB1EE08
:10158000487AB4EEC76AF1EE10FA08D4B4EEC86A2D
:10159000F1EE10FAD4BFB0EE467AB0EE487A77EEAC
:1015A000677AB0EE478A87EEA66A84ED0C6A2368F4
:1015B000E06C9E6901F0E8FADFED0B0AB0EE401A2C
:1015C0002046B0EE480AB047B0EE480ABDEC028BA8
:1015D000C4F8705170BDDFED027AB1E7BD378635D2
:1015E0006F12833A00E440C60000000070B5044664
:1015F0002DED028BF0EE408A01F0CDFBD4F8703176
:101600009FED477AC31A07EE903AF8EE677A0546DF
:1016100067EE877AF5EEC07AF1EE10FA74D9B6EE7D
:10162000007AF4EE477A9FED3F7AF1EE10FAC8BFE8
:10163000F0EE477AD4ED035A94ED187A38EEE56A65
:1016400067EE276AB0EEC65AF0EEE66AB4EEE65AE6
:10165000F1EE10FA61DDB5EEC06AF1EE10FA56D483
:1016600058DDB7EE006AF0EEC76A66EE866AE6EE0F
:10167000A75AF0EE658AD4ED126ADFED2B7A94ED6D
:10168000168AC4ED038AF4EE676AF1EE10FA84ED6F
:10169000057A21D0D4ED0D7A94ED177AF0EEE77A41
:1016A000B0EE676AA6EE876AB1EE487AB4EEC76A12
:1016B000F1EE10FA08D4B4EEC86AF1EE10FAD4BF15
:1016C000B0EE467AB0EE487A77EE677AB0EE478AA7
:1016D00087EEA66A84ED0C6A2368B0EE680A9E69FC
:1016E00001F03CFAE06C01F04FFADFED100AB0EEC9
:1016F000401A2046B0EE480AB047B0EE480ABDECAA
:10170000028BC4F8705170BDDFED067A92E7BFEE30
:10171000006AA8E79FED056AA5E79FED047AAAE7AE
:10172000BD3786356F12833A00E440C600000000E2
:1017300070B504462DED028B2548DFED268A9FED1E
:10174000268A01F02DFE636C266E2366236CA56D40
:10175000A3650023E360D4F8500103689B699847B0
:1017600088B1D4ED037AF4EEE87AF1EE10FA0AD5F6
:101770002046B0EE480AFFF739FFD4F8500103685D
:101780005B699847E7E79FED151A2368F0EE410A79
:101790009B69B0EE410A20469847D4F85831266636
:1017A000A56543B1D4F8500103689B69984768B1B7
:1017B0000B4801F0F5FDD4F8500103689B69984788
:1017C000BDEC028BB0FA80F0400970BD0548F0E72F
:1017D000FFFE0008DB0FC940E4CB1641000000000B
:1017E00014FF00082BFF000838B504462DED068BCA
:1017F0007C4801F0D5FDD4F8500103689B699847F7
:1018000030B994F93C51D4ED109A55B17648E2E0E4
:101810002046FFF78DFF0028F3D10020BDEC068B9A
:1018200038BD9FED72AADFED728A23689FED718A41
:10183000DFED710A9B6907EE905AF8EEE77AB0EE99
:10184000690A67EE8A7A204687EEA81A013531EEDA
:10185000081A9847D4F8500103685B69984702203A
:1018600001F097FA40F2F5139D42DED1D4F8500111
:10187000DFED61AA03685B699847D4F850010368FB
:101880005B6898474FF4FA75B0EE409A07EE905AAD
:10189000F8EEE77A236867EE8A7AF0EE6A0A87EE56
:1018A000A81A9B692046B0EE690A31EE081A9847DB
:1018B000D4F8500103685B699847022001F069FA87
:1018C000013DE3D2D4F8500103685B699847D4F82E
:1018D000500103685B689847C820F0EE408A01F029
:1018E00058FA39EE688ADFED457AB0EEC88AB4EE70
:1018F000E78AF1EE10FA03D5414801F051FD8CE77B
:10190000B4EEE89AF1EE10FA5FD53E4801F048FDDA
:10191000D4ED137A84F83C51B8EEE77ADFED3A7AE9
:10192000E7EE087AB6EE007AF0EEE77AF4EEC77AE0
:10193000F1EE10FAD4BF0123002384F83D31002BCF
:1019400048D18AEE080A314801F034FD94ED4E7A10
:10195000DFED2F7AB4EE677AF1EE10FA3ED19FED0B
:10196000268A23689FED231A9B69F0EE480AB0EEA1
:10197000690A204698474FF42F7001F00AFAD4F80C
:10198000500103685B699847204684ED4E8A00F059
:101990006DFF142084ED4E0A01F0FBF9D4F85831A4
:1019A00023B194ED4E0A1B4801F004FD9FED121A7D
:1019B000236820469B69F0EE410AB0EE410A984741
:1019C000C82001F0E6F9012028E7134801F0E8FCFF
:1019D00001259DE7114801F0E3FCB7E7104801F04D
:1019E000DFFCF0E739FF0008D8FF0008DB0FC94033
:1019F0000000FA43E4CB964000000000A9CF7E3DF2
:101A00004CFF00086BFF0008DB0FC9C0A0FF0008F7
:101A100000E440C6EDFF000886FF0008C5FF00088F
:101A20000500010838B5032380F86530D0F850313F
:101A30000446002B35D0FFF7D7FE0546D4F85001F9
:101A400003685B699847204600F0D4FE84ED030AE2
:101A500055B1D4F8543103B31B7B8BB90E23164810
:101A600084F8653001F09CFC144801F099FC0E23C9
:101A700084F86530236820465B68984700200BE0B7
:101A80002046FFF713FD0028EED00D4801F088FC3A
:101A9000042384F86530012038BD0A4801F080FC39
:101AA000F3E7094801F07CFC94F86930033B012B13
:101AB000DAD80648F2E700BF1D00010897000108C8
:101AC0008B00010850000108670001087700010839
:101AD00010B5D0F830312DED028B9FED9F8A5A1C46
:101AE000B4EE480AC0F83021D0F82C21F1EE10FAFB
:101AF00018BF80ED010A93420446C0F09180002394
:101B0000C0F8303190F86930033B012B03D900F065
:101B100071FE84ED030A204600F08CFE94F96430D7
:101B200084ED050A002B7BD0D4ED147AF4EE487ACC
:101B3000F1EE10FA0BD09FED897A67EE877A9FED70
:101B4000887AC0EE276AC6EE877AC4ED0D7AD4F89B
:101B5000543183B994ED127AB4EE487AF1EE10FA6A
:101B600009D0D4ED0D6AD4ED0A7A77EEE67AC7EEA5
:101B7000876AC4ED0C6A94F86930042B50D8DFE80A
:101B800003F003CE55D8E20094F86830D4ED017A22
:101B9000002B48D1D4ED126A94ED166AF4EE486A2F
:101BA000F1EE10FA1ABF94ED0D7AA6EEA77AB0EE18
:101BB000677AF1EE466AF4EEC76AF1EE10FA12DCCB
:101BC000B4EEC76AF1EE10FA48BFB0EE467AD4ED33
:101BD000155A84ED0A7AF4EE485AF1EE10FA05D15E
:101BE000002363621CE0B0EE667AF0E794ED137AAE
:101BF00067EEC07AB8EEC77A67EE877A67EEA57AA5
:101C0000F4EEE76AF1EE10FA08DCB4EEE76AF1EE02
:101C100010FA54BFF0EE676AF0EE466AC4ED096A46
:101C2000BDEC028B10BDC4ED067AF9E7D4ED017A64
:101C300094ED030AC4ED087A37EEC00A04F1F0000F
:101C4000D4ED028A01F00EF8D4ED186A78EE807AAD
:101C5000B1EE667AF4EEC77AF1EE10FA08D4F4EE3B
:101C6000E67AF1EE10FAD4BFB0EE677AB0EE667A9B
:101C700094ED050A84ED077A37EE400A04F1CC00B2
:101C800000F0F0FF94F8683084ED060A002BC7D10D
:101C900094ED127AB4EE487AF1EE10FA46D0D4ED13
:101CA0000D7AD4ED166AE0EE077AB1EE667AF4EEBC
:101CB000C77AF1EE10FA08D4F4EEE67AF1EE10FAF3
:101CC000D4BFB0EE677AB0EE667A84ED0A7A94ED0E
:101CD000157AB4EE487AF1EE10FA81D0D4ED057A97
:101CE00020EE670AD4ED137AF8EEE77A20EE270AA1
:101CF00020EE070A94ED167AF1EE477AB4EEE70A81
:101D0000F1EE10FA08D4B4EEC70AF1EE10FAD4BF1F
:101D1000F0EE407AF0EE477AC4ED097A80E7D4ED30
:101D2000017A37EEC00AC4ED077AA7E7B0EE407A31
:101D3000CBE794ED010A204684ED070AFFF7DCFBB0
:101D400084ED0A0A4CE794ED010A204684ED080A66
:101D5000FFF74CFCF4E700BF00E440C6D7B3DD3F1B
:101D60005077D63D70470000037D022B88B00CD021
:101D7000B5EE401AF1EE10FA9FED147ADFED147A09
:101D800005D160EE870AE0EE270A08B07047B5EE8D
:101D9000400AF1EE10FA04D1B1EE411A31EE600AB8
:101DA000EFE7F5EE400AF1EE10FA1DBF70EE806A23
:101DB0009FED086A76EE816AF1EE400A1ABFA6EE40
:101DC000C60AE6EEC60A70EEC10ADAE73ACD933FDC
:101DD0003ACD133FABAAAA3E10B52DED048B036894
:101DE00088B09B680446B0EE409A98472046FFF7BB
:101DF000BBFFB5EE409AF1EE10FAF0EE408AB0EE7D
:101E0000608A12D001A902A8B0EE490A00F092FE41
:101E1000DDED027A9DED017A67EEE87AE7EE087A69
:101E2000F5EEC07AF1EE10FA02DDB7EE009A01E0AD
:101E3000BFEE009A28EE080AA8EEA80A00F0ACFE51
:101E400020EE090A08B0BDEC048B10BD00B52DEDE5
:101E5000028B89B0F0EE408A04A9B0EE410A05A8D1
:101E6000B0EE608A00F066FEDDED057A9DED047A45
:101E700027EE880A68EEE70AA7EE280AE7EE080AC6
:101E800009B0BDEC028B5DF804FB10B52DED028BA3
:101E900003688AB09B680446B0EE408A98472046A3
:101EA000FFF762FFB0EE481A0AB0BDEC028BBDE846
:101EB0001040FFF7CBBF10B50B680446DB68A1608C
:101EC00008469847207510BD70B52DED068B036848
:101ED000DFED219A9B689FED21AA8AB004460D464A
:101EE00098470026B0EE409AF0EE608AB0EE418A44
:101EF0008DED040ACDED050A8DED061AAE4209DB23
:101F0000B0EE490AF0EE680AB0EE481A0AB0BDEC2D
:101F1000068B70BD236820469B6898478DED070AA5
:101F2000CDED080A8DED091A20EE290A60EEA90A06
:101F300021EE291AA9EE0A0A03200136E8EE8A0AE0
:101F4000A8EE0A1AB0EE409AF0EE608AB0EE418A2E
:101F500000F01FFFD2E700BFCDCCCC3E9A99193FCD
:101F60002DE9F0472DED068B04468EB010EE100AD9
:101F70000E46002A75D0A36893ED038AF6EE007A28
:101F800028EE278AFEF7E8FACB4B0022FEF766FC24
:101F900000258046894618EE100AFEF7DDFA07EEA6
:101FA000905AF8EEE77ACDE9000117EE900AFEF7B5
:101FB000D3FA42464B46FEF727FBDDE90023FEF746
:101FC0006DF9FEF7DBFD336800EE100A1B69B0EE19
:101FD000481AF0EE480A304698470135032000F0D1
:101FE000D8FE642DD7D14FF4FA7000F0D2FE294606
:101FF0002046FFF769FF33688DED020AF0EE408A54
:10200000B0EE609AF0EE419ACDED030A8DED041A20
:102010001B69B0EE481AF0EE480AB0EE480A3046A6
:102020009847DFEDA67AF0EEE86AF4EEE76AF1EEA3
:1020300010FAB0EEE97AB0EEC99A15D5B4EEE79A87
:10204000F1EE10FA10D5B4EEE77AF1EE10FA0BD5F6
:102050009B4801F0A5F900200EB0BDEC068BBDE851
:10206000F0879FED988A8DE7DFED967ACDED056AD2
:102070008DED069A8DED077A05A80023F0EE676ACC
:10208000FF25B0EC017AB5EE407AF1EE10FA20D0DF
:10209000B4EEE67AF1EE10FA1BDDDDB205A90022FE
:1020A00093420FD091ED006AB5EE406AF1EE10FA5E
:1020B00008D0C7EE066AF4EEE76AF1EE10FAC8BF80
:1020C000F0EE667A0132032A01F10401E8D1F0EE64
:1020D000476A0133032BD4D1B7EE08AAF4EECA7ACB
:1020E000F1EE10FAC0F20D81012D00F0D480022D26
:1020F00000F0F4800025F5EEC08AF1EE10FA40F110
:102100004181714801F04CF9D4ED067AF1EE677A1D
:10211000C4ED067A01274FF0000A07EE90AAF8EE08
:10212000E77A0AF1010A17EE900AFEF715FA42461D
:102130004B46FEF769FADDE90023FEF7AFF8FEF73C
:102140001DFD336800EE900A1B69B0EE481AB0EE30
:10215000480A30469847032000F01BFEBAF1640F8E
:10216000DBD14FF4FA7000F014FE51462046FFF721
:10217000ABFE33688DED080A1B69CDED090AF0EE60
:10218000608AB0EE419A8DED0A1A3046F0EE60AAF0
:10219000F0EE419AF0EE480AB0EE481AB0EE480A66
:1021A0009847DDED087AF0EEE77ACDED0B7AF0EEA8
:1021B000E87ACDED0C7AF0EEC97ACDED0D7ADFED4F
:1021C000417A0BAE0023F0EE676AFF21B6EC017A8C
:1021D000B5EE407AF1EE10FA20D0B4EEE67AF1EEE8
:1021E00010FA1BDDD9B20BA8002293420FD090ED5C
:1021F000006AB5EE406AF1EE10FA08D0C7EE066A42
:10220000F4EEE76AF1EE10FAC8BFF0EE667A01323A
:10221000032A00F10400E8D1F0EE476A0133032BF2
:10222000D4D1F4EECA7AF1EE10FAC0F2C7800029D8
:1022300000F0AD80022900F0AC80F5EEC0AAF1EE0E
:1022400010FA09D5214801F0ABF8D4ED077AF1EE88
:10225000677AC4ED077A0127D4ED0E7A9FED1C7AD8
:10226000F8EEE77AF4EE477AF1EE10FA0FD0F5EED9
:10227000C09AF1EE10FA0AD409DD164801F090F880
:10228000D4ED087AF1EE677AC4ED087A012705EB00
:1022900047000130E0E6104801F082F8D4E90C3242
:1022A000C4E90C23636AA26A6262A362E269A36959
:1022B000E361A2611FE700BF00005940CDCCCC3DD7
:1022C000AD00010800000000F20001086A010108E9
:1022D00000E440C6B0010108D40001084C4801F0F8
:1022E0005FF8236BA26B2263A363E26A636AE36213
:1022F0006262A369226AA2612362F0EE698A012503
:10230000F9E6D4ED0C7AB8EEE77ADFED427AB4EE76
:10231000677AF1EE10FA37D094ED0D7AB8EEC77AFD
:10232000B4EE677AF1EE10FA0AD094ED0E7AB8EEB8
:10233000C77AB4EE677AF1EE10FA13D0364888E621
:10234000364801F02DF8D4E90C32C4E90C23636A55
:10235000A26A6262A362E269A369E361A2610027E3
:102360000125D8E62E4801F01BF8236BA26B2263EF
:10237000A363E26A636AE3626262A369226AA2619A
:102380002362ECE70027C6E600273D46C3E6254862
:102390005FE6254801F004F8D4E90D32C4E90D23C5
:1023A000A36AE26AA262E362226AE3692362E261EB
:1023B000F0EE49AAF0EE689A01253EE7D4ED0D7AD9
:1023C0009FED147AF8EEE77AF4EE477AF1EE10FA20
:1023D0003FF442AFD4ED0E7AF8EEE77AF4EE477AA6
:1023E000F1EE10FA01D0114833E6114800F0D8FFA1
:1023F000D4E90D32C4E90D23A36AE26AA262E36262
:10240000226AE3692362E261F0EE689A012523E71C
:10241000E300010800E440C6FC00010825010108B2
:10242000380101084B0101085B0101087401010832
:102430009D0101082DE9F0470446D4ED0C7A9FED8B
:10244000797AF8EEE77A2DED048BF4EE477AF1EE27
:1024500010FA10EE100A84B00D4608D0D4ED0D7AB3
:10246000F8EEE77AF4EE477AF1EE10FA08D16E480A
:1024700000F096FF002004B0BDEC048BBDE8F087AF
:10248000FEF76AF8694B9FED6A8A0022FEF7E6F9CB
:1024900000268046894607EE906AF8EEE77A013614
:1024A00017EE900AFEF758F842464B46FEF7ACF896
:1024B000FEF764FB2B6800EE100A1B69F0EE480A79
:1024C00028469847032000F064FC642EE3D14FF4C3
:1024D000FA7000F05EFC31462046FFF7F5FC2B68F1
:1024E000CDED020AB0EE608ADFED510A8DED010AF2
:1024F000F0EE408A1B699FED4F9A8DED031AB0EE06
:10250000600A28469847F0EEE87AF4EEC97AF1EED0
:1025100010FAB0EEC88A06D5B4EEC98AF1EE10FA08
:1025200001D54548A4E7F4EEC87AF1EE10FA5FD57C
:10253000424800F035FFD4E90C32C4E90C23636A49
:10254000A26A6262A362E269A369E361A2610126F1
:10255000F5EEC08AF1EE10FA4CD5394800F020FFB4
:10256000D4ED067AF1EE677AC4ED067A4FF0010AEF
:102570009FED2F8A002707EE907AF8EEE77A013771
:1025800017EE900AFDF7E8FF42464B46FEF73CF88F
:10259000FEF7F4FA2B6800EE900A1B69B0EE480AC9
:1025A00028469847032000F0F4FB642FE3D14FF452
:1025B000FA7000F0EEFB39462046FFF785FC2B68E9
:1025C000CDED020AB0EE608ADFED190A8DED010A49
:1025D0001B698DED031AB0EE600A28469847F0EEAD
:1025E000C87AF4EEC97AF1EE10FA06D515483FE73D
:1025F0000026ADE74FF0000ABAE7B5EEC08AF1EE6B
:1026000010FA0AD5104800F0CBFED4ED077AF1EEAF
:10261000677AC4ED077A4FF0010A06EB4A000130F1
:1026200029E700BF00E440C6BA0101080000594094
:1026300000000000CDCCCC3DD8010108D400010839
:10264000F2000108F10101086A0101080A46017956
:1026500010B469B9047B7CB1037D8168022B03D17E
:102660005DF8044BFFF7E6BE5DF8044BFFF778BC5E
:1026700001205DF8044B70472046FAE738B5514B0E
:102680002DED028B9FED508ADFED508A036000250F
:102690000123044680F8673080ED028AF0EE481A84
:1026A000B0EE481AF0EE680AA0F86450B2EE082ABC
:1026B000B0EE080A6C3000F0BFFAF0EE680ADFED09
:1026C000448AF0EE481AB0EE481AB2EE082AB0EE8C
:1026D000080A04F1900000F0AFFAB0EE680A04F1C5
:1026E000B40000F067FAB0EE680A04F1C00000F030
:1026F00061FAB0EE481ADFED371AB2EE082AF2EEB0
:10270000040AB6EE000A04F1CC0000F095FAB3EE2C
:10271000042AF0EE481AB0EE481AF0EE480AB0EE7D
:10272000420A04F1F00000F087FAB0EE680A04F5FE
:102730008A7000F03FFAB0EE480A04F5907000F09D
:1027400039FA6423C4F84031092384F8463104235C
:10275000C4F84831632384F84C31A4F844511E4B2B
:10276000A4F83C51236684ED018A1C4B84ED098A50
:1027700084ED0A8A84ED068A84ED0C8A84ED0B8A46
:1027800084ED0D8A84ED0E8A84ED0F8A84ED4D8AE6
:10279000BDEC028BA3654FF08043E3654FF07E53A1
:1027A00063640F4B23640F4BC4F85C512046C4E9AB
:1027B0004B55C4E9545584F86650C4F85851C4F8D0
:1027C000383138BD58080108000000000000964369
:1027D0000AD7A33B00007A440000A041000040411A
:1027E0000000404000E440C6C0F850117047C0F8F7
:1027F0005411704710B50446D0F850012DED028BEE
:1028000020B994ED030ABDEC028B10BD94F93C3164
:1028100008EE103A03685B68984704F5907000F082
:10282000D5F9B8EEC88AD4ED4D7AD8EE007AB0EE7C
:10283000670AE8E710B50446D0F850012DED028B89
:1028400020B994ED050ABDEC028B10BD94F93C3122
:1028500000EE103A0368DB68B8EEC08A984704F5CA
:102860008A7000F0B3F928EE000AECE710B50446D0
:10287000D0F850012DED028BB0B194F93C31E26CEF
:10288000534307EE903A03681B68B8EEE78A98470F
:10289000D4ED4E7AD8EE007ABDEC028BB0EE670A2A
:1028A000BDE8104000F05AB9BDEC028B94ED040A6B
:1028B00010BD000008B5C0F85811084600F060FDD2
:1028C000BDE80840014800F06BBD00BF0F020108E1
:1028D000026983699FED1B7AD31A07EE903AF8EEEE
:1028E000E77A67EE877AF5EEC07AF1EE10FA07D54F
:1028F000C3684361C3690362826190ED020A704755
:1029000090ED017AB4EEE77AF1EE10FAF5DCC169E8
:10291000036A90ED036ADFED0C5A0162CB1A07EEF1
:10292000103AF8EEC76A90ED057A826136EE477A82
:1029300080ED056AA6EEA57A87EE270A80ED020AE9
:10294000704700BFBD378635DB0FC94090ED030AE5
:1029500070470000D0ED077A90ED030A9FED037AEF
:10296000F8EEE77AA7EE870A704700BFDB0FC94091
:10297000D0B50446C069FDF7DDFD09A3D3E9002306
:10298000FDF742FE0646E0680F46FDF7E5FD02460C
:102990000B4630463946FDF781FC41EC100BD0BDAB
:1029A00000000060FB211940C0697047002070479B
:1029B00010B503682DED028BDB6904469847B5EE30
:1029C000C00AF1EE10FAB0EE408A1CD400F0E3F930
:1029D000D4ED037A9FED0D7A206178EE677AF0EE00
:1029E000E76AF4EEC76AF1EE10FA0ADDF5EEC07A96
:1029F000E369F1EE10FACCBF4FF0FF32012213442D
:102A0000E36184ED038ABDEC028B10BD7CD9A0404C
:102A1000036870B5184DDB69184E0446984769681D
:102A20003368174AB3FBF2F26B685B1A9A42FBDC1D
:102A300023682046DB69984784ED050A00F0ABF96E
:102A4000A061012009F0FEFF23682046DB6998475A
:102A50006968094832680A4BB2FBF3F243685B1AB3
:102A60009A42FBDC23682046DB69984784ED030A21
:102A700000F091F9206170BD001000E044010020D9
:102A800040420F00DFED1E7A1E4920EE270A10B5E6
:102A9000FCEEC07A17EE902A12F4404FD0B24FEA03
:102AA0001224C2F307230DD131F81320013331F87A
:102AB00013309B1A434302EB232300EE103ABAEE85
:102AC000E80A10BD220606D4C3F18002C3F17F03D9
:102AD00031F81220EBE7BF2B95BFA3F18002C3F5BD
:102AE00080727F3BC3F1FF0394BF31F8122031F8AD
:102AF000122031F8133094BF524252425B42D8E761
:102B000083F9224674080108DFED087A08B530EE33
:102B1000270ADFED077AB4EEE70AF1EE10FAC8BF34
:102B200030EE670AFFF7AEFF08BD00BFDB0FC93FFD
:102B3000DB0FC94038B52DED028B0546B0EE408A5B
:102B40000C46FFF79FFF85ED000AB0EE480AFFF73D
:102B5000DBFFBDEC028B84ED000A38BD08B52DED1E
:102B6000028B9FED088AF0EE480A0CF0A7FEB5EE46
:102B7000C00AF1EE10FAB8BF30EE080ABDEC028BC5
:102B800008BD00BFDB0FC94007EE900AF8EEE77AF8
:102B900027EE800A7047000010EE102A044BA3EBCA
:102BA0005203F0EE407A00EE103A27EE800A7047AA
:102BB000865A375F10B5002380ED000A8360044613
:102BC00000F0E9F86060204610BD000010B5044632
:102BD0002DED028BB0EE408A00F0DDF863689FEDCA
:102BE000147AC31A07EE903AF8EE677A67EE877A9E
:102BF0009FED107AF4EEC77AF1EE10FA0FDCD4ED07
:102C0000006A76EEA77A86EEA77AF7EE007A77EE7C
:102C1000C77A27EE888AD4ED027AA7EE878A6060A9
:102C2000B0EE480A84ED028ABDEC028B10BD00BFF5
:102C3000BD3786359A99993E10B5002380ED000A7C
:102C4000C0ED010A80ED021AC0ED031A80ED042ADE
:102C500043618361C361044600F09DF82062204611
:102C600010BD000010B504462DED028BB0EE408A79
:102C700000F091F8236A9FED427AC31A07EE903A6A
:102C8000F8EE677A67EE877AB6EE007AF5EEC07AEC
:102C9000F1EE10FA64D9F4EE477ADFED3A6AF1EE1C
:102CA00010FAC8BFF0EE667AD4ED006A94ED016ABE
:102CB00028EE265A27EE866AD4ED056A26EE076AC4
:102CC00076EE885A94ED077AA6EE257AD4ED045A6A
:102CD000B1EE650AB4EEC70AF1EE10FA43DCF4EE89
:102CE000C75AF1EE10FA48BFB0EE657A94ED026A69
:102CF00078EE666A66EE866A86EEA76A77EE056A01
:102D000076EE266AB4EEE60AF1EE10FA08DCF4EE8E
:102D1000E65AF1EE10FA54BFB0EE660AB0EE650A5C
:102D2000D4ED036AF5EEC06AF1EE10FA0EDD94ED13
:102D3000066A30EE465AC5EE275AF4EEE56AF1EE21
:102D400010FA13D5A6EEA76AB0EE460A84ED058AFE
:102D5000BDEC028B84ED077A84ED060A206210BD7B
:102D6000DFED087AA0E7B0EE407ABFE7F1EE666AE1
:102D7000F4EEE56AF1EE10FAE8DDA7EEA66AE3E705
:102D8000BD3786356F12833A0023C3618361436187
:102D9000704709F057BE09F053BE2DE9F0410446D3
:102DA0004FF000081D4640F202330F4616460360FE
:102DB000C0F8C08014224146C4300AF0F1FE2672E9
:102DC000C4F8D880676065722046BDE8F08130B5F0
:102DD000D0F8C04000EB8405EA600219013482F8A3
:102DE0005C102B67C0F8C04030BD0346406818B186
:102DF0001B780BB109F006BB70470346406818B159
:102E00001B780BB109F0FABA70470346406818B155
:102E10001B780BB109F0FABA70470346406820B13D
:102E20001B7813B10A2209F05CBB70470346406867
:102E300020B11A7812B1597809F0E0BB7047034607
:102E4000406818B11B780BB109F0F6BA7047034619
:102E5000406818B11B780BB109F0E4BA70470378E9
:102E6000022B01D1FFF7C9BF7047000008B5037AF4
:102E70008B4204D00D2904D10349FFF7F0FF012054
:102E800008BD0020FCE700BF250201080378032BE2
:102E900001D1FFF7BABF70470378032B01D1FFF7C9
:102EA000C5BF7047F8B50C461178074616461D4653
:102EB000FFF7DCFF30B194ED010A3846BDE8F84079
:102EC000FFF7EABF94F86930042B0FD8DFE803F06E
:102ED0000319415C7E00294630460AF07BFE09F06A
:102EE000D0FD51EC100BFDF749FE606038464449B7
:102EF000FFF7B5FF94ED010A3846BDE8F840FFF74B
:102F000095BF294630460AF065FE09F0BAFD51EC3E
:102F1000100BFDF733FE6060294600200AF05AFED0
:102F20000028E3D009F0ADFD51EC100BFDF726FEB3
:102F300094ED127ADFED337AC4F8DC00B4EE677AF0
:102F4000F1EE10FA40D194F86830002B3CD1A06526
:102F5000CCE7294630460AF03DFE09F092FD51ECDF
:102F6000100BFDF70BFE2946606000200AF032FED0
:102F70000028BBD009F085FD51EC100BFDF7FEFDDC
:102F80002066C4F80001C7E7294630460AF022FE51
:102F900009F077FD51EC100BFDF7F0FD606029465C
:102FA00000200AF017FE0028A0D009F06AFD51ECBD
:102FB000100BFDF7E3FD94ED127ADFED127AB4EE1B
:102FC000677AF1EE10FAC2D0E0658FE72946304605
:102FD0000AF000FE09F055FD51EC100BFDF7CEFD97
:102FE0002946606000200AF0F5FD00283FF47EAF1E
:102FF00009F047FD51EC100BFDF7C0FD2066CEE750
:103000003A02010800E440C62DE9F0472DED028B9D
:1030100092F8019092F800A082B00C4649461646FC
:1030200098460546FFF722FFA9F14103192B0746F1
:103030008CBF01200220304409F023FD51EC100B1D
:10304000FDF79CFDBAF1450F08EE100A00F08480F0
:10305000BAF1540F49D0BAF1430F40F08F804D4977
:103060002846FFF7FCFEB9F1440F12D14A49284621
:10307000FFF7F5FE1FB9BCEEC88A84ED4B8AD4F881
:103080002C11284602B0BDEC028BBDE8F047FFF7DB
:10309000C4BE87B9B5EEC08AF1EE10FA0BDBFDEEC7
:1030A000C87A17EE903A042BDEBFFCEEC87A17EE12
:1030B000903A84F8693094F86930042B3FD8DFE8FF
:1030C00003F0030C0E1012003449284602B0BDEC88
:1030D000028BBDE8F047FFF7BABE3149F5E7314949
:1030E000F3E73149F1E73149EFE731492846FFF786
:1030F000B6FE6FB9FDEEC87ACDED017A9DF80430C9
:10310000022B9EBFFCEEC87A17EE903A84F8683026
:1031100094F86830012B17D0022B1BD07BB92549BE
:103120002846FFF794FE94ED127ADFED237AB4EE91
:10313000677AF1EE10FA02D1A36DC4F8DC3002B068
:10314000BDEC028BBDE8F0871C492846FFF77FFEE7
:10315000E36DF2E71A49F8E71A492846FFF77FFEC0
:103160004FB92368B5EE408AF1EE10FA14BF9B68A0
:103170005B682046984794F9641082E743463246DC
:103180002146284602B0BDEC028BBDE8F047FFF7B0
:1031900089BE00BF430201084B0201085902010821
:1031A0006002010817FE0008640201086D020108B0
:1031B000780201088102010800E440C68602010885
:1031C0008E020108970201080378032B01D1FFF753
:1031D0003EBE70472DE9F0410D4609783F2904466F
:1031E00018D040293AD023295CD0D0F8C02000F173
:1031F0005B030026B24219DD13F8010F884267D144
:1032000004EB86062046FFF741FEF368681CBDE824
:10321000F04118476FF05A0700F15B0500F16C06AA
:103220003F1AD4F8C0207B199A4201DCBDE8F08136
:103230003F212046FFF72AFE15F8011F2046FFF721
:10324000E4FD24492046FFF7D0FD56F8041F19B1CC
:103250002046FFF7F4FDE4E71F49F9E76978FFF737
:1032600005FE18B9681C09F00FFC20701B492046A8
:10327000FFF7F5FD40212046FFF708FE2378022BDB
:1032800002D84BB1164908E0032BCFD1204615498F
:10329000BDE8F041FFF798BF13492046BDE8F04173
:1032A000FFF7D5BD6978FFF7E1FD18B9681C09F093
:1032B000EBFB607020460D49FFF7D1FD204623212E
:1032C000FFF7E4FD61782046BDE8F041FFF7A5BDBA
:1032D00001368FE7A4020108E5050108A0020108F4
:1032E000AB020108AF020108A6020108B7020108FB
:1032F0002DE9F047D0F80480077A416004460D4676
:10330000027200F1C40900262B6828461B69984701
:1033100020B92772C4F80480BDE8F0872B682846DE
:103320005B699847D4F8D8305A1C23445FFA80FA76
:10333000C4F8D82083F8C4A0637A1BB15146204654
:10334000FFF763FD51462046FFF790FD40B1494627
:103350002046FFF73FFF84F8C460C4F8D860D3E785
:10336000D4F8D830132BC4BF84F8C400C4F8D800F4
:10337000CAE7416811B1027AFFF7BABF704700008F
:10338000014B1860704700BF24070020034B014623
:10339000186808B109F050B8704700BF2407002032
:1033A000034B0146186808B109F03CB8704700BFEC
:1033B0002407002010B50B4C014620682DED028B30
:1033C000B0EE408A58B109F019F8B0EE480ABDECE9
:1033D000028B20680221BDE8104009F00FB9BDEC56
:1033E000028B10BD2407002038B5084D034628681D
:1033F0000C4648B1194609F005F8286821460A220A
:10340000BDE8384009F06DB838BD00BF2407002082
:1034100038B5084D034628680C4648B1194608F0EF
:10342000EDFF286821460A22BDE8384009F059B866
:1034300038BD00BF24070020034B0146186808B1BF
:1034400008F0E0BF704700BF24070020034B01468F
:10345000186810B10A2209F042B87047240700200A
:10346000012A02D1016000207047022A05D0032AF8
:10347000F9D0002AF7D10260F5E70B680360F2E7A4
:103480000368184710B52DED048B044688B000F092
:1034900047F9206B9FED289A07EE900AF8EEE77A3D
:1034A000F4EE497AF1EE10FA3CD0216900F0E2FA2C
:1034B000D4ED097A70EE678AD4ED067A68EEA78AB1
:1034C000606B07EE900AF8EEE77AF4EE497AF1EED7
:1034D00010FA2AD0216900F0CDFAD4ED0A7A30EE44
:1034E000678AD4ED077A28EE278AA06B07EE900A48
:1034F000F8EEE77AF4EE497AF1EE10FA18D0216985
:1035000000F0B8FAD4ED0B7A30EE671AD4ED087AF1
:1035100021EE271AB0EE680AF0EE480A08B0BDECBA
:10352000048B10BDDFED058ACAE79FED048ADCE756
:103530009FED021AEEE700BF00E440C60000000065
:10354000F7EE007A87EE807A30B500250571856048
:103550000573056105750A4D0560C0E90C12C7EEDB
:10356000207A836380ED0F0AC0ED100AC0ED117A56
:10357000C0ED067AC0ED077AC0ED087A30BD00BF15
:103580000009010838B500232DED028B9FED3F8A1D
:10359000436204468362C3624FF4FA6500F0C0F8E8
:1035A000206B07EE900AF8EEE77AF4EE487AF1EE37
:1035B00010FA08D0216900F05DFAD4ED097A77EEAF
:1035C000807AC4ED097A606B07EE900AF8EEE77A2C
:1035D000F4EE487AF1EE10FA08D0216900F04AFAC8
:1035E000D4ED0A7A77EE807AC4ED0A7AA06B07EE02
:1035F000900AF8EEE77AF4EE487AF1EE10FA08D085
:10360000216900F037FAD4ED0B7A77EE807AC4EDB9
:103610000B7A0120FFF7BDFB013DBFD1D4ED0C7A41
:10362000F8EEE77AF4EE487AF1EE10FA1FBFD4ED27
:10363000096A9FED177AC6EE877AC4ED097AD4ED50
:103640000D7AF8EEE77AF4EE487AF1EE10FA1FBF41
:10365000D4ED0A6A9FED0E7AC6EE877AC4ED0A7A37
:10366000D4ED0E7AF8EEE77AF4EE487AF1EE10FA3D
:103670001EBFD4ED0B6A9FED067AC6EE877ABDECCD
:10368000028B18BFC4ED0B7A38BD00BF00E440C602
:103690000000FA4410B50446806820B91E48FFF7C0
:1036A0007FFE002010BDD4E90D23216B406900F09E
:1036B00063FA431C01462061F3D0A368586900F007
:1036C000DFFA0130EDD0237D012B0DD1A06890ED04
:1036D000031A0368F6EE007A21EE271A1B69F0EE52
:1036E000410AB0EE410A98472046FFF74BFF237D81
:1036F000012B09D1A0689FED091A0368F0EE410A79
:103700001B69B0EE410A98472369013318BF0123B2
:1037100023730120C6E700BFC002010800000000BB
:1037200070470000184BDA6C42F0040286B0DA648D
:10373000DA6C02F004020192019ADA6C42F0200283
:10374000DA64DA6C02F020020292029ADA6C42F039
:103750000102DA64DA6C02F001020392039ADA6C75
:1037600042F00202DA64DA6C02F002020492049A75
:10377000DA6C42F40052DA64DB6C03F40053059314
:10378000059B06B0704700BF0010024000B51C4BFF
:103790009A6C42F0040295B09A649A6C02F00402AA
:1037A0000092009A9A6C42F001029A649A6C02F0BC
:1037B00001020192019A9A6C42F002029A649B6C97
:1037C000002203F00203114602930B20029B02F039
:1037D00031FE0B2002F060FE002211460C2002F0A8
:1037E00029FE0C2002F058FE4FF40043039303A877
:1037F0004FF08053129304F0F5FC15B05DF804FB14
:103800000010024030B500258DB004462022294624
:1038100004A8CDE9015503950AF0C2F94FF4E0136D
:103820004FF0A04E0422C4E900E30123C4E90532AD
:10383000052222624FF4A4614FF48062C4E902556C
:10384000C4E90B122561A58384F8245084F838302C
:10385000E563204602F01CF910B13448FFF7A0FDE3
:1038600001A92046019502F06BFD10B13048FFF729
:1038700097FDDFF8D4C006237F22CDE904C30023DF
:10388000CDE9063204A904222046CDE9082302F03E
:1038900039FA10B12748FFF783FD274D0C2304A9FF
:1038A0002046CDE9045302F02DFA10B12148FFF76C
:1038B00077FD22481223CDE904037F220423CDE9BA
:1038C0000632089304A900232046099302F01AFA4D
:1038D00010B11848FFF764FD19491823CDE9041306
:1038E0007F220423CDE90632089304A90023204651
:1038F000099302F007FA10B10E48FFF751FD114A83
:103900004FF48073CDE9042304237F22CDE90632EE
:10391000089304A900232046099302F0F3F910B19B
:103920000448FFF73DFD0DB030BD00BFD8020108CF
:10393000ED020108160301080800900C0008302E63
:103940002000F014020030040010603210B588B07E
:1039500004462022002168460AF022F91A494FF451
:10396000E0130122C4E90013042100234FF4A460F2
:10397000C4E905214FF48061C4E90B01C4E90233B5
:103980002361A383226284F8243084F83820E3631F
:10399000204602F07DF810B10C48FFF701FD0C4AFB
:1039A0000623CDE9002300237F22CDE902326946B8
:1039B00004222046CDE9042302F0A4F910B1054801
:1039C000FFF7EEFC08B010BD00010050D80201085E
:1039D0000800900C1603010810B5044688B01422A4
:1039E000002103A80AF0DCF823681D4A934214D191
:1039F0001C4BDA6C42F00102DA64DB6C03F0010369
:103A00000093009B0E2303930323049303A94FF019
:103A1000904003F005F808B010BD134A93420BD153
:103A2000104BDA6C42F00102DA64DB6C03F0010344
:103A30000193019BE023E6E70C4A9342EBD1094B4B
:103A40000B48DA6C42F00202DA64DB6C03F002032A
:103A50000293029B07220323CDE9032303A9D8E79E
:103A6000000301400010024004030140080301402C
:103A700000040048C0380E2823D8DFE800F01F22D9
:103A80000822222214222222172222191C000E4B65
:103A90005B889BB207EE903A91ED030AF8EEE77A65
:103AA00027EE800A7047094B1B88F2E7064BFBE7BD
:103AB000054B9B88EDE7044BDB88EAE7024B1B894B
:103AC000E7E70023E6E700BF2A07002028070020D9
:103AD00008B5402201608021C0E901124FF4003C8A
:103AE00000224FF44041C0E909C1026102758261C0
:103AF000C26203F005FF20B1BDE808400148FFF7AE
:103B00004FBC08BD3403010838B50D4606491446BC
:103B1000FFF7DEFF28460549FFF7DAFF2046044994
:103B2000BDE83840FFF7D4BF000301400403014063
:103B30000803014038B5C1E9002300230C46C1E960
:103B400002334FF480728021C4E90412054620221A
:103B50004FF48060C4E906022362204602F010FEA2
:103B6000204602F09FFD10B10248FFF719FC6C657A
:103B7000A56238BD4B030108F8B51D460F46164631
:103B800001F04CFFFFF7CEFDFFF700FE274A284962
:103B90002848FFF7B9FF2848FFF734FE2748FFF70A
:103BA000D5FE7F21244802F07FFB7F21234802F0CD
:103BB0007BFB234A234920480523FFF7BBFF224A0A
:103BC00022491E482423FFF7B5FF21491A48052240
:103BD00002F0B8FA10B11F48FFF7E2FB1E49174880
:103BE000012202F0AFFA10B11A48FFF7D9FB1148D1
:103BF00003F002FF0D4803F0FFFE0D4803F0FCFE4A
:103C0000182006F0A6FF154BC36000230446C0E948
:103C1000007685600361124806F090FD114B53F861
:103C200020301B6863612046F8BD00BF30080020CB
:103C3000F40700206C08002014090020A8080020C8
:103C400008000240940700201C00024034070020B6
:103C50002A07002060030108280700203333533A65
:103C6000002C0140600B0020014802F08CBE00BF18
:103C700094070020014802F086BE00BF34070020F0
:103C800070B50C460621054601F006F8606906F09D
:103C90002BFD224B02689A4223D1606906F024FD75
:103CA00002686069136843F01003136006F01CFD9E
:103CB00003686069DE6A06F017FD03685E6260698A
:103CC00006F012FD0268536823F0007323F07003BE
:103CD00043F0200328465360062101F019F92046DD
:103CE00070BD606906F000FD0D4B02689A42D4D0A9
:103CF000606906F0F9FC0B4B02689A42CDD060690E
:103D000006F0F2FC084B02689A42C6D0606906F0E1
:103D1000EBFC064B02689A42D1D1BEE7002C014071
:103D2000003401400040014000440140004801408F
:103D30000120704780F8481080F8492080F84A3008
:103D40007047000070B50446006C07EE900AB8EEAC
:103D5000E77ADFED0E7AB4EE677AF1EE10FA02D070
:103D6000217E08F097FD23685D69012320461A46ED
:103D70001946A84723689FED061A1B692046F0EEF6
:103D8000410ABDE87040B0EE410A184700E440C661
:103D90000000000038B5036804465D6900231A4638
:103DA0001946A8479FED0E1A236820461B69F0EEBE
:103DB000410AB0EE410A9847206C07EE900AB8EE2F
:103DC000E77ADFED087AB4EE677AF1EE10FA06D002
:103DD000217EBDE8384081F0010108F05BBD38BDAF
:103DE0000000000000E440C610B52DED028B044633
:103DF00084B0806A9FED2A8A012108F0E1FC206BE3
:103E0000012108F0DDFCA06B012108F0D9FCE06A7B
:103E1000012108F0D5FC606B012108F0D1FCE06BBA
:103E2000012108F0CDFC206C07EE900AF8EEE77A4D
:103E3000F4EE487AF1EE10FA02D0012108F0C0FC4D
:103E400094ED037AD4ED027AB4EE487AF1EE10FAEA
:103E500004D0B4EEE77AF1EE10FA01DDC4ED037A96
:103E60000023A4F8483084F84A30002363622362B8
:103E7000E361E36B0293A36B0193636B0093D4E95B
:103E80000B23A16A94ED110A606801F00FF96061DB
:103E9000013018BF0120207404B0BDEC028B10BDAE
:103EA00000E440C6B5EEC00AF1EE10FA60D4D0EDE1
:103EB000037AF4EEC07AF1EE10FA48BFB0EE670A6A
:103EC000F5EEC00AF1EE10FA55D4D0ED037AF4EE17
:103ED000E07AF1EE10FA48BFF0EE670AB5EEC01ACC
:103EE000F1EE10FA4AD4D0ED037AF4EEC17AF1EE95
:103EF00010FA48BFB0EE671A90ED027AC0EE077A6A
:103F0000F5EEC07AF1EE10FA3BD4B7EE000AF4EE0B
:103F1000C07AF1EE10FAD8BFB0EE670AC0EE877A29
:103F200080ED070AF5EEC07AF1EE10FA2CD4F7EE28
:103F3000000AF4EEE07AF1EE10FAD8BFF0EE670A6C
:103F4000C1EE077AC0ED080AF5EEC07AF1EE10FA7C
:103F50001DD4B7EE001AF4EEC17AF1EE10FAD8BF14
:103F6000B0EE671A416980ED091A483000F08EBC46
:103F70009FED080AA4E7DFED070AAFE79FED051AFA
:103F8000BAE79FED040AC9E7DFED020AD8E79FED23
:103F9000011AE7E70000000030B50363049B836368
:103FA000039B4363059BC363069B0364084B8360C9
:103FB0000025084B05744561C3600125064B057655
:103FC0004360064D064B05608162C262436430BDAA
:103FD0000000404100E440C6C7CFFFFF20090108B0
:103FE0000AD7A33C8268C2F3C433D20203F1FF3381
:103FF00005D5032B07D8054A32F913007047032B68
:1040000001D8034AF8E74FF0FF3070474A0901082A
:104010004209010808B506F067FB104B006898429A
:1040200013D0B0F1804F12D0A3F59433984210D042
:1040300003F5806398420ED003F5963398420CBF87
:104040004FF010104FF0FF3008BD0020FCE71020AB
:10405000FAE72020F8E73020F6E700BF002C014007
:104060002DE9F743002506460C4617464FF0FF386A
:10407000A946AF420AD8C14505D0B8FBF6F5043CC5
:104080000026B7420FD803B0BDE8F08354F82500EE
:1040900006F0FCFB814503D3804528BF8046484697
:1040A00001358146E5E754F8040F06F0EFFBB0FB5D
:1040B000F8F107EE901A0D480191B8EE670AFFF784
:1040C00079F907EE905A0A48B8EE670AFFF772F9D5
:1040D0000199206806F02CFB20680022294606F092
:1040E00001FC206806F0FCFA0136CAE775030108F6
:1040F00095030108000000002DE9F04F2DED028B23
:10410000804687B0B0EE408A91461D460F46002992
:1041100000F00082002A00F0FD818B68C3F3C433F5
:1041200003939368C3F3C4330493DDE903329342EA
:1041300040F0F0814868D9F80430984240F0EA81B4
:1041400006F0FCFABC4E56F820300446C3B9B42041
:1041500006F0FFFC7968824606F0ACFC56F82400B5
:104160006023C36001238361C0F800A0043004F021
:1041700015FC56F8243002221868414606F0B2FBBE
:1041800056F8243003991C68DFF8B4A20026009684
:104190003B680422204606F0F5F90096D9F8003075
:1041A00004990422204606F0EDF907EE908ADFED2F
:1041B000A36AF8EEE77A4FF47A7886EEA77A20467B
:1041C00067EE087AFCEEE77A17EE903ACDED057AC5
:1041D00008FB03F806F088FA03681B6813F4407FB5
:1041E0005ED1DAF8002092A1D1E900013346FCF754
:1041F00015FDC90141EA5061C001804576EB01011E
:1042000020466CD206F070FA03681B6813F4407302
:1042100055D1DAF8002086A1D1E90001FCF7FEFCB7
:1042200002460B4640460021FCF7F8FC10F07F06E2
:1042300000F06481204606F057FA0268536C23F0C0
:10424000FF0333435364204606F04EFA06683846AF
:10425000FFF7C8FE01464846FFF7C4FE336A014334
:1042600019433162204606F01AF8204606F03CFA5F
:104270000268536C23F4406343F400635364129B5D
:10428000129A05EB830345F82240039A9A61049A37
:104290005C60DA61284607B0BDEC028BBDE8F08FA8
:1042A000204606F021FA0368DAF800201B6803F4C0
:1042B0004073B3F5807F0CBF5208920893E7204605
:1042C00006F012FA0368DAF800201B6803F4407362
:1042D000B3F5807F0CBF5208920800239BE706F0DD
:1042E00003FA0368DFF858B11B6813F4407328D150
:1042F000DBF800204EA1D1E90001FCF78FFC090298
:1043000041EA10610002804576EB0101204638D277
:1043100006F0EAF903681B6813F4407321D1DBF857
:10432000002043A1D1E90001FCF778FC02460B46CE
:1043300040460021FCF772FCC0F3450646F08006BB
:1043400078E7204606F0D0F90368DAF800201B6809
:1043500003F44073B3F5807F0CBF5208920800232A
:10436000C8E7204606F0C0F90368DBF800201B68A8
:1043700003F44073B3F5807F0CBF5208920800230A
:10438000CFE706F0B1F90368DFF8B4A01B6813F4B7
:1043900040732DD1DAF8002025A1D1E90001FCF706
:1043A0003DFC490241EAD0514002804576EB0101D3
:1043B00048D2059B4FF47A762046A3FB068606F08A
:1043C00093F903681B6813F4407321D1DAF80020D5
:1043D00017A1D1E90001FCF721FC02460B4640463B
:1043E0003146FCF71BFCC0F3C40646F0C00621E7CB
:1043F000204606F079F90368DBF800201B6803F417
:104400004073B3F5807F0CBF520892080023C3E7C6
:10441000204606F069F90368DAF800201B6803F407
:104420004073B3F5807F0CBF520892080023CFE79A
:104430000010A5D4E8000000600B0020286B6E4E31
:1044400044010020204606F04FF90368DFF8DCB095
:104450001B6813F4407331D1DBF8002031A1D1E99E
:104460000001FCF7DBFB890241EA905180028045A4
:1044700076EB010142D2059B4FF47A782046A3FBEC
:10448000086806F031F903681B6813F4407325D1FE
:10449000DBF8002023A1D1E90001FCF7BFFB0246B5
:1044A0000B4630464146FCF7B9FB000940EA017073
:1044B000A0F1200666F01F06F6B2BBE6204606F025
:1044C00013F90368DAF800201B6803F44073B3F5AE
:1044D000807F0CBF520892080023BFE7204606F0F9
:1044E00003F90368DBF800201B6803F44073B3F59D
:1044F000807F0CBF520892080023CBE7B5EEC08A3C
:10450000F1EE10FA04DD0648FEF74AFFFF2691E6B9
:1045100000268FE64FF0FF35BCE600BFAFF300800A
:10452000B50301080010A5D4E800000044010020F4
:104530002DE9F0432DED028B064683B03C20B0EE12
:10454000408A884691461F4606F003FB002501235A
:1045500080F83830C0E90055C0E90255C0E904557B
:10456000C0E90655C0E90855C0E90A55066380ED63
:104570000D8A0346044600954A464146B0EE480A75
:104580003046FFF7B9FD013007D14FF0FF34204628
:1045900003B0BDEC028BBDE8F083022300930C9ABC
:1045A00023463946B0EE480A3046FFF7A5FD0130F4
:1045B000EBD004230093DDE90D122346B0EE480A48
:1045C0003046FFF799FD0130E1D1DEE72DE9F74FE5
:1045D000714ADFF8C8C1166803460022964268DCBB
:1045E000052B4FF000027ADD03F1FF3CA1F1040E30
:1045F000944578DC00221046A1F1040C9A42C0F2E6
:104600008680062B52D10D68AC68E20200F1B880BA
:10461000D1F808E0DEF80820D30200F1B180D1F82B
:1046200010C0DCF80830DF0200F1AA80D5F804A041
:104630004D686E68D5F808900196B24509F4801867
:104640007BD1CE68DEF804507768BD4275D1D1F8D1
:1046500014B0DCF80450DBF80470BD426DD189EA77
:10466000040515F4782F68D1B66882EA060515F4BA
:10467000782F62D1DBF8085083EA050919F4782F06
:104680005BD1B8F1000F5BD0F6027FD5ED027DD58E
:10469000C4F3C434042C76DCC2F3C432042A72DCC2
:1046A000C3F3C433052BA8BF6FF0070003B0BDE808
:1046B000F08F51F822005CF8045B47686C68A742F1
:1046C00005D18068AD68684010F4782F4FD0013272
:1046D00084E751F822008068C0024BD401329A422C
:1046E000F7DB002280E701321046984280D05EF866
:1046F000224051F8205067686E68B74205D1A4681F
:10470000AD686C4014F4FC1F37D00130EDE7013286
:10471000144600259C4204D1002D7FF46FAF013078
:104720006CE751F824605CF8227076687F68013489
:10473000B74208BF45F00105ECE7B8F1000F25D1FD
:10474000CA689368DC0221D44B699968C9021DD4F8
:1047500001998A451DD1DEF804105268914218D1A2
:10476000DCF804205B689A4213D10A309EE76FF0B0
:1047700001009BE76FF0020098E76FF0030095E7F8
:104780006FF0040092E76FF007008FE76FF005000D
:104790008CE76FF0060089E7B0090020800900204F
:1047A000C3B2292B10B510DC144A52F8233000F4A0
:1047B000E0600343124900200C2404FB00F28A58F5
:1047C000B2F1FF3F15D1104610BD00F0C002C02A63
:1047D0000CD1CF2B0ADC0B4B00F03F0200F4E06061
:1047E00053F82220054B53F82230E2E74FF0FF3315
:1047F000E0E79A42E8D00130DFE700BFF80B01089C
:10480000680A0108B80B0108C2B2292A10B50CDCED
:10481000174951F8222000F4E063134315490020A2
:104820000A68541C15D1104610BD00F0C003C02BFF
:104830000CD1CF2A0ADC104B00F03F0253F82210B3
:104840000B4A00F4E06352F82120E6E74FF0FF3313
:10485000E4E722F4E0629A4200F1010404D1CA685C
:1048600022F4E0629A42DFD10C312046D8E700BF43
:10487000F80B0108680A0108B80B0108034608464E
:1048800011460BB905F07EBD05F0DABD70B52DED12
:10489000068B91F83820F0EE408AB0EE608AB0EED8
:1048A000419A05460C46002A4CD0012A40F041812D
:1048B000D1E90623007809689FED9FAADFED9F9A52
:1048C000FFF7DCFF2B78A1692068002B08BFF0EE12
:1048D0004A8A68EEA98A0C23FCEEE87A17EE902A41
:1048E00006F026F8D4E90823A1686878FFF7C6FF28
:1048F0006B78216AA068002B08BFB0EE4A8A28EEC8
:10490000298A0C23FCEEC87A17EE902A06F010F8DC
:10491000D4E90A232169A878FFF7B0FFAB78A16A30
:104920002069002B08BFB0EE4A9A69EE299A0C2341
:10493000FCEEE97A17EE902ABDEC068BBDE87040DC
:1049400005F0F6BF2B78D1ED0D9A08688969013B17
:10495000F6EE007A012B69EEA79A00F2CA8030EEDB
:10496000697AB5EEC07AF1EE10FA00F1BF80F7EE89
:10497000007AB4EEE77AF1EE10FAD8BFF0EE477A9B
:104980009FED6E7A67EE877A0C23FCEEE77A17EEDE
:10499000902A05F0CDFF2B786068E16903F0FD03F4
:1049A000012B40F0AB8078EEA98AF5EEC08AF1EEDB
:1049B00010FA00F1A080F7EE007AF4EEE78AF1EE4B
:1049C00010FAD8BFF0EE687A9FED5C7A67EE877ACE
:1049D0000C23FCEEE77A17EE902A05F0A9FF6B781E
:1049E000A068216A013B012B00F28E8038EE697AC3
:1049F000B5EEC07AF1EE10FA00F18380F7EE007A9E
:104A0000B4EEE77AF1EE10FAD8BFF0EE477A9FEDF8
:104A10004B7A67EE877A0C23FCEEE77A17EE902A42
:104A200005F086FF6B78E068616A03F0FD03012BF7
:104A300070D138EE298AB5EEC08AF1EE10FA66D44C
:104A4000F7EE007AB4EEE78AF1EE10FAD8BFF0EE96
:104A5000487A9FED3A7A67EE877A0C23FCEEE77A84
:104A600017EE902A05F064FFAB782069A16A013B3C
:104A7000012B55D839EE697AB5EEC07AF1EE10FA0D
:104A80004BD4F7EE007AB4EEE77AF1EE10FAD8BF25
:104A9000F0EE477A9FED297A67EE877A0C23FCEED9
:104AA000E77A17EE902A05F043FFAB786069E16A78
:104AB00003F0FD03012B39D139EE291AB5EEC01AE6
:104AC000F1EE10FA2FD4F7EE007AB4EEE71AF1EE19
:104AD00010FAD8BFF0EE417A9FED187A67EE877A28
:104AE0000C23FCEEE77A17EE902A25E7DFED127A29
:104AF00046E70C234DE7DFED107A65E70C23002233
:104B00006BE7DFED0D7A82E70C23002288E7DFED0B
:104B10000A7A9EE70C230022A4E7DFED077AB9E7C3
:104B20000C230022BFE7DFED047AD5E70C23002237
:104B300002E7BDEC068B70BD0000000000F07F4571
:104B400009289ABF024B18564FF0FF30704700BF3C
:104B5000380901082DE9F34782460C46002941D067
:104B60004868DFF8949005F0E9FD59F820300546D3
:104B7000002B3BD1B42005F0ECFF6168064605F040
:104B800099FF59F82500602206600126C2608661FF
:104B9000043003F003FF59F825301F68A368384636
:104BA000C3F3C43805F07BFB26B1022251463846D8
:104BB00005F098FE002300930422236841463846FE
:104BC00005F0E0FC59F82530586805F0B7FDFFF70F
:104BD000B7FF01460648FEF71BFC06484146FEF7B4
:104BE00017FC3C46204602B0BDE8F0870026D2E71D
:104BF000EA0301080D040108600B00202DE9F341D0
:104C000080464868214F0C4605F098FD57F8203043
:104C10000646002B38D1B42005F09BFF616805469D
:104C200005F048FF57F82600602205600125C260A4
:104C30008561043003F0B2FE57F82630A768586843
:104C40001E6805F07BFDFFF77BFFC7F3C437014605
:104C50000F48FEF7DDFB0F483946FEF7D9FB30461B
:104C600005F01DFB25B102224146304605F03AFE13
:104C700000230093304623680522394605F082FC64
:104C8000304602B0BDE8F0810025D5E7600B00207A
:104C9000320401085404010870B50D46041F0026B3
:104CA000AE4200DB70BD60680028FBD005F0F7FA6B
:104CB00054F8040F05F014FD206805F015FD006898
:104CC00005F03CFDFFF73CFF01460248FEF7A0FB64
:104CD0000136E5E7780401082DE9F04F7C4EDFF856
:104CE0002492DFF824A283B033689B00073323F0BB
:104CF000070300AF0025ADEB030DE8462C463368F3
:104D0000AB423CDC73482146FEF782FB012C2ADDD6
:104D1000DFF8F8A1002558F82590484605F0E4FC96
:104D20000368534541D1484605F0DEFC03685E68E0
:104D300016F020066AD14FF0FF30B54206D058F881
:104D400026104846FFF766F9431C5FD00136B4428F
:104D5000F3D101305AD00FFA85FABAF1FF3F59D199
:104D60005D48FEF71DFB0025AC4240F09880002511
:104D7000AC4240F0A7800C37BD46BDE8F08F59F833
:104D8000043B586805F0DAFC5AF820301A68002312
:104D90009C4204D148F8242001340135AFE758F88B
:104DA00023109142F9D00133F2E7484605F09CFC0C
:104DB0000368B3F1804FB6D0484605F095FC474BE9
:104DC00002689A42AFD0484605F08EFC444B026818
:104DD0009A42A8D0484605F087FC424B02689A42A6
:104DE000A1D0484605F080FC3F4B02689A429AD019
:104DF000484605F079FC3D4B02689A4293D04846FC
:104E000005F072FC3A4B02689A428CD00135AC42F4
:104E100081D1A5E758F82A90364E374D484605F01F
:104E200063FC006805F08AFCFFF78AFE0146334800
:104E3000FEF7EEFA484605F057FC026893683340E7
:104E40009360484605F050FC0268536823F00073F5
:104E500023F0700343F01003536000239A451AD0E7
:104E600058F823B03B60584605F03EFC59460268AE
:104E70007A604846FFF7CEF87A6891682940014386
:104E80009160584605F030FC01683B688A68324002
:104E900042F006028A6001339C42DFD163E758F892
:104EA0002560304605F0FBF9304605F01DFC006832
:104EB00005F044FCFFF744FE01461148FEF7A8FA4E
:104EC000013551E758F8250005F035FB01354FE76E
:104ED000B009002093040108BE040108000400404A
:104EE0000008004000100040001400400034014061
:104EF00000400140F8FFFEFF8FFFCFFFFA040108DA
:104F00002405010880090020600B0020002C0140CE
:104F1000FFF7E2BEF8B5064615460C460027B74235
:104F200005DB29461448BDE8F840FEF75DBA236862
:104F300043B91248FEF780FA1148FEF77DFA0137AF
:104F40000434ECE70F48FEF777FA2368586805F059
:104F5000F5FBFFF7F5FDFEF779FA0B48FEF76CFA63
:104F600023689868C0F3C430FEF770FA23689B6822
:104F7000DB02E1D50548DDE74E05010841050108E2
:104F80001908010844050108480501084C050108F5
:104F90002DE9F04F9B46830085B0073323F00703CC
:104FA00000AFADEB030D04460E46FA60E846002361
:104FB000A3421ADBFB6853F826904846FFF7F0FB44
:104FC00005464846FFF720FC6A1C824602D0B0F135
:104FD000FF3F3FD122484946FEF71AFA4FF0FF390A
:104FE00048461437BD46BDE8F08F5BF8232048F8EB
:104FF00023200133DCE741462046FFF7E7FA41462C
:10500000024678602046FFF785FF7A681CE058F872
:1050100023104BF823100133A342F8DB91460135EE
:105020005545DDDC0F4B0C2202FB053348F82630DA
:10503000BB68B342DFDDFA684346711C2046FFF7C8
:10504000A7FF431C0246C9D0002AE8DB9145E6DDF4
:105050003346E1E7631E4FF47A79BB60E0E700BFB7
:1050600056050108680A010870B5134615460A4638
:1050700000210646FFF78CFFB0F57A7F044606D183
:105080000848FEF783F96FF00904204670BD002838
:10509000FBDB0548FEF7D0F9224629463046FFF7EC
:1050A00039FFF2E777050108AE0501082DE9F04F59
:1050B000674C2DED028B2468062C9FB0B0EE408A21
:1050C0000ADD6448FEF76CF94FF0FF3738461FB031
:1050D000BDEC028BBDE8F08F002851D007EE900A9E
:1050E0009FED5D7AF8EEE77AF4EE477AF1EE10FA8A
:1050F00046D04CF250348442A8BF044624EAE474FB
:105100000E932A9B0F932B9B1093CDE90C122C9B93
:1051100011931822002112A808F042FD12AA0CA92E
:105120000620FFF7A1FF0028CEDB0928DDE912BA2F
:10513000DDE91459DDE916874FEA440423DCCDE9A3
:105140000187CDF800902B4652465946B0EE480AEA
:105150002046FFF7EDF9074612AD0FCDDFF8F0C09E
:105160003E4CDCF8006004EB86040FC495E80300B5
:10517000063684E80300CCF80060FFF7ADFDA5E734
:1051800046F2A814BCE759462046FFF7E3FC514617
:1051900009902046FFF732FD294605902046FFF78B
:1051A000D9FC494608902046FFF728FD4146069065
:1051B0002046FFF7CFFC394606462046FFF71EFD86
:1051C000099B1893059B1993089B1A93069B0790BC
:1051D0001D90062218A92046CDE91B36FEF740FF98
:1051E000DBF80820AB68C2F3C43BDAF80820C2F34E
:1051F000C43AD9F80820C2F3C439D8F80820C2F359
:10520000C438BA68C3F3C433C2F3C4323C200B932E
:105210000A9205F09EFC099B0360059B4360089B76
:105220008360069B0A9AC0F81CA0C0E90336079B5E
:10523000C0F82880C0E9053B0B9B80ED0D8AC0E9D2
:1052400008390023C0E90B24074680F8383083E78B
:10525000B0090020C005010800E440C68009002014
:10526000836810B5044613B10322014698472046CF
:1052700010BD90F8403010B5044603B172B6204618
:10528000FDF796FBA36C236194F8403003B162B63E
:1052900010BD000038B504460025A560E5606561D5
:1052A00061620C480C4D6060991A00202560013144
:1052B0004FF49665C4E90600C4E90D23206120621D
:1052C000E562E16384F84000FDF765FD6064204617
:1052D00038BD00BF17B7D1385C09010890F84030DD
:1052E00010B5044643B9FDF756FDE26AA0640121FA
:1052F000606A07F043FBA062A06A10BD10B50021F0
:105300000446406A07F05CFA2046FFF7E7FF206397
:10531000FDF741FDA0642046BDE81040FDF778BBD5
:1053200010B50446FFF7DAFFD4E90D329042A8BF6A
:1053300010469842B8BF1846C31A07EE903A94ED4B
:105340000F7A2063F8EEE77AB8EEC77A87EE870A1D
:10535000DFED027A20EE270A10BD00BFDB0FC94047
:1053600038B50446FDF717FD0546606A07F0CAFA2E
:1053700018B9636CA364EA1AA2620123656484F815
:10538000403038BD1FB5012380F84030436ADAB29F
:10539000292A1FDC194C54F8222003F4E060104342
:1053A000421C18BF18460023CDE90033CDE9023373
:1053B00021B1134B0393134B0091029302226946D0
:1053C00007F066F9029B1BB10322694668469847BD
:1053D00004B010BD03F0C000C0280CD1CF2A0ADCF5
:1053E000094A03F03F0052F82040044A03F4E06009
:1053F00052F82420D3E74FF0FF30D4E7F80B010830
:105400008134000861340008B80B010870B5084EFB
:10541000084D34460FCC0FC594E8070085E8070017
:105420000FCE054D0FC594E8070085E8070070BD55
:10543000D8000020D0090020B40900202DE9F04157
:105440001646444ADDF818801C460123C0E91E2395
:105450000D4668220021074608F0A2FBF3B2292B73
:1054600028D83D4A52F8233006F4E0661E43EBB2DA
:10547000292BBE6632D8384A52F8233005F4E0654D
:105480001D43E3B2292BFD663CD8334A52F8233042
:1054900004F4E0641C435FFA88F2292A3C6745D88B
:1054A0002D4951F8222008F4E06313437B67384606
:1054B000BDE8F08106F0C002C02A0CD1CF2B0AD87B
:1054C000264B06F03F0206F4E06653F82220224BFA
:1054D00053F82230CAE74FF0FF36C8E705F0C002A4
:1054E000C02A0CD1CF2B0AD81C4B05F03F0205F483
:1054F000E06553F82220184B53F82230C0E74FF0F4
:10550000FF35BEE704F0C002C02A0CD1CF2B0AD869
:10551000124B04F03F0204F4E06453F822200E4BD7
:1055200053F82230B6E74FF0FF34B4E708F0C00379
:10553000C02B0CD1CF2A0AD8084B08F03F0253F8F1
:105540002210054A08F4E06352F82120ADE74FF03D
:10555000FF33ABE700093D00F80B0108B80B010869
:1055600007B52A2300931A4619460348FFF766FF3A
:1055700003B05DF804FB00BFEC0900200020704779
:10558000028BC08A101A7047C28A018B914288BF71
:105590000169034683BF885C0132DA824FF0FF3035
:1055A0007047028BC38A9A4286BF0269D05C4FF073
:1055B000FF30704770B54FF47A730E460021C0E992
:1055C0000113034615462B4A43F8C42B0446C0F882
:1055D000C4109C22C3E90111C0E93411C0E936119D
:1055E000C0F8E010283008F0DBFAF3B2292B19D804
:1055F000214A52F8233006F4E0661E43EBB2292B11
:10560000C4F8846022D81C4A52F8233005F4E065BF
:105610001D430023C4F88850E36123842361A382DF
:10562000204670BD06F0C002C02A0CD1CF2B0AD88C
:10563000124B06F03F0206F4E06653F822200E4BB0
:1056400053F82230D9E74FF0FF36D7E705F0C00214
:10565000C02A0CD1CF2B0AD8084B05F03F0205F425
:10566000E06553F82220044B53F82230D0E74FF086
:10567000FF35CEE788090108F80B0108B80B0108CF
:1056800038B50446283000F0A9F8E06918B107F0F1
:1056900007FA0023E36120690025258410B107F093
:1056A000FFF92561A58238BD38B50546074B45F899
:1056B000D43B0446FFF7E4FF2846FFF7D1FD04F191
:1056C000C400FFF7CDFD204638BD00BF88090108A2
:1056D000B1F5806F70B505460C4610D8038C994221
:1056E0000AD920290E4638BF2026C069314607F066
:1056F0008DFA18B1E8612E84204670BDFEE70024C3
:10570000FAE713B590F824308DF8071004467BB102
:10571000418C0131FFF7DCFF40B1638CE2699DF8F9
:105720000710D154638C01336384012002B010BD93
:1057300001220DF10701283000F0A0F8B0FA80F046
:105740004009F3E770B590F8243004460E4615463C
:1057500093B1418C1144FFF7BBFF10B900252846D7
:1057600070BD638CE0692A461844314608F011FB8D
:10577000638C2B446384F2E792B2283000F07EF809
:105780000028EBD1EBE70346006918B19A8A0021A3
:1057900008F006BA70470346C06918B11A8C002198
:1057A00008F0FEB9704738B504460025C582058368
:1057B000FFF7E9FF65842046FFF7EDFF38BD0000E5
:1057C000024828222721FFF7F5BE00BF6C0A0020FF
:1057D0000148FFF769BF00BF6C0A002010B50446FE
:1057E00090F9640000F066FE94F9650000F062FE36
:1057F000201D01F079FA206E032105F041FDE06DD6
:10580000032105F03DFD2368184A93420DD1184B42
:105810009A6B42F400129A639A6B22F400129A6314
:105820009A6D22F400129A6510BD124A93420CD16F
:105830000F4B9A6B42F480029A639A6B22F48002B7
:105840009A639A6D22F48002EDE70B4A9342EBD102
:10585000074B9A6B42F080429A639A6B22F0804227
:105860009A639A6D22F08042DDE700BF0054004049
:10587000001002400058004000780040202A30B557
:1058800014D800239CB2A24207D890F89430134455
:10589000DBB280F89430002030BD90F89440CD5CAD
:1058A0001C440444013384F87450EBE70120F3E70F
:1058B00070B590F89130012B04460E46A0F1040516
:1058C00009D1436E3BB1836E28469847022384F882
:1058D000913000236366012E4FF0000312D1E26E77
:1058E00084F891301AB184F890302846904794F8A3
:1058F000902004F1700120464FF00073BDE8704025
:1059000001F00CBA0122636684F89120616E743153
:10591000294420464FF08073BDE8704001F060BA22
:1059200010B590F89130012B044604D1436E13B1A9
:10593000836E04389847022384F89130002363660D
:105940002046BDE8104001F0ADBA436E1F2BDEBF0C
:10595000436E0133436690F89130012BDAB206D1E1
:10596000416E70314FF08073014401F039BA7047D5
:10597000002380F89030704790F892300BB901F016
:1059800091BA7047014B186801F0A0BA500B002083
:10599000014B186801F097BD500B0020014B58686F
:1059A00001F094BA500B0020014B586801F08BBDF8
:1059B000500B0020014B986801F088BA500B002072
:1059C000014B986801F07FBD500B0020704700002C
:1059D00038B50F4B1A6805460AB9012038BD4FF497
:1059E0007A73B3FBF2F30B4A1068B0FBF3F000F0EC
:1059F00073FD04460028F0D10F2DEED8024629464B
:105A00004FF0FF3000F016FD034B20461D60E5E728
:105A1000F400002044010020F800002010B503200D
:105A200000F0F6FC0020FFF7D3FF044618B9FFF79B
:105A3000CDFF204610BD0124FBE70000034A0449C6
:105A4000136809680B441360704700BF5C0B0020AB
:105A5000F4000020014B1868704700BF5C0B002069
:105A600030B5CC0D04F004041430C1F304510359D3
:105A700007258D4023EA05038A401343035130BDB7
:105A8000806800F0010070478068C0F380007047B4
:105A900037B5002301930446002800F0DB80C56D74
:105AA00025B905F053F9256684F8585023689A689B
:105AB000950041BF9A6822F0204222F03F029A608E
:105AC0009A68D00040F19E809A68D10000F1B180C0
:105AD000E26D42F01002E265226E42F0010222669F
